:04000000B9EF04F060
:10080000004961676F204C696D610000000E036E46
:10081000010E026EABEC04F0000E036E380E026E99
:10082000ABEC04F0000E036E800E026EABEC04F035
:10083000000E036E0F0E026EABEC04F0000E036EA2
:10084000010E026EABEC04F01A0E056EF80EE82EE7
:10085000FED7052EFCD700D01200000E096E000E48
:10086000086E10D008500424066E09500520076E4B
:1008700006C0F6FF07C0F7FF0800F5509BEC04F038
:10088000084A092A08500424066E09500520076EFC
:1008900006C0F6FF07C0F7FF0800F5500009D8B4FE
:1008A0001200E0D7000E956E000E966E000E846E5C
:1008B00006EC04F0010E046E080E056E2DEC04F03B
:1008C000000E066E000E056E000E086E020E076E1C
:1008D00071EC04F0010E046E080E056E2DEC04F0B0
:1008E000FFD7020E07180810D8A409D0C00E05249F
:1008F000026E000E0620036EABEC04F01200800EB8
:100900000524026E000E0620036EABEC04F012000C
:1009100084821A0E016EF80EE82EFED7012EFCD747
:1009200000D084921A0E016EF80EE82EFED7012E2A
:10093000FCD700D01200036E848403C083FF88ECD0
:1009400004F01A0E026EF80EE82EFED7022EFCD727
:1009500000D084941200849402C083FF88EC04F0D9
:100960001A0E046EF80EE82EFED7042EFCD700D027
:1009700012000D6A0C6A0B6A0A6A000EF86E080E05
:08098000F76E000152EF04F0D4
:020000040020DA
:08000000FFFFFFFFFFFFFFFF00
:020000040030CA
:0E000000000C1F1EFF8385FF0FC00FE00F4096
:00000001FF
